{
  "_format": "hh-sol-artifact-1",
  "contractName": "Vapour721AFactory",
  "sourceName": "contracts/Vapour721AFactory.sol",
  "abi": [
    {
      "inputs": [],
      "stateMutability": "nonpayable",
      "type": "constructor"
    },
    {
      "anonymous": false,
      "inputs": [
        {
          "indexed": false,
          "internalType": "address",
          "name": "sender",
          "type": "address"
        },
        {
          "indexed": false,
          "internalType": "address",
          "name": "implementation",
          "type": "address"
        }
      ],
      "name": "Implementation",
      "type": "event"
    },
    {
      "anonymous": false,
      "inputs": [
        {
          "indexed": false,
          "internalType": "address",
          "name": "sender",
          "type": "address"
        },
        {
          "indexed": false,
          "internalType": "address",
          "name": "child",
          "type": "address"
        }
      ],
      "name": "NewChild",
      "type": "event"
    },
    {
      "inputs": [
        {
          "internalType": "bytes",
          "name": "data_",
          "type": "bytes"
        }
      ],
      "name": "createChild",
      "outputs": [
        {
          "internalType": "address",
          "name": "",
          "type": "address"
        }
      ],
      "stateMutability": "nonpayable",
      "type": "function"
    },
    {
      "inputs": [
        {
          "components": [
            {
              "internalType": "string",
              "name": "name",
              "type": "string"
            },
            {
              "internalType": "string",
              "name": "symbol",
              "type": "string"
            },
            {
              "internalType": "string",
              "name": "baseURI",
              "type": "string"
            },
            {
              "internalType": "uint256",
              "name": "supplyLimit",
              "type": "uint256"
            },
            {
              "internalType": "address",
              "name": "recipient",
              "type": "address"
            },
            {
              "internalType": "address",
              "name": "owner",
              "type": "address"
            },
            {
              "internalType": "address",
              "name": "admin",
              "type": "address"
            },
            {
              "internalType": "uint256",
              "name": "royaltyBPS",
              "type": "uint256"
            },
            {
              "internalType": "address",
              "name": "currency",
              "type": "address"
            },
            {
              "components": [
                {
                  "internalType": "bytes[]",
                  "name": "sources",
                  "type": "bytes[]"
                },
                {
                  "internalType": "uint256[]",
                  "name": "constants",
                  "type": "uint256[]"
                },
                {
                  "internalType": "uint256",
                  "name": "stackLength",
                  "type": "uint256"
                },
                {
                  "internalType": "uint256",
                  "name": "argumentsLength",
                  "type": "uint256"
                }
              ],
              "internalType": "struct StateConfig",
              "name": "vmStateConfig",
              "type": "tuple"
            }
          ],
          "internalType": "struct InitializeConfig",
          "name": "initializeConfig_",
          "type": "tuple"
        }
      ],
      "name": "createChildTyped",
      "outputs": [
        {
          "internalType": "contract Vapour721A",
          "name": "",
          "type": "address"
        }
      ],
      "stateMutability": "nonpayable",
      "type": "function"
    },
    {
      "inputs": [
        {
          "internalType": "address",
          "name": "maybeChild_",
          "type": "address"
        }
      ],
      "name": "isChild",
      "outputs": [
        {
          "internalType": "bool",
          "name": "",
          "type": "bool"
        }
      ],
      "stateMutability": "view",
      "type": "function"
    }
  ],
  "bytecode": "0x60a060405234801561001057600080fd5b506001600090815560405161002490610096565b604051809103906000f080158015610040573d6000803e3d6000fd5b50604080513381526001600160a01b03831660208201529192507f7fac34ecf0b1b374cd9659e3d17db602659d53f1162b1f20142e6c02694aed70910160405180910390a16001600160a01b03166080526100a3565b61575c80610ec383390190565b608051610e056100be60003960006102a70152610e056000f3fe608060405234801561001057600080fd5b50600436106100415760003560e01c80632cdf13b2146100465780632ea72a4914610076578063fc91a89714610089575b600080fd5b6100596100543660046103d2565b6100c5565b6040516001600160a01b0390911681526020015b60405180910390f35b610059610084366004610414565b61015b565b6100b56100973660046104b5565b6001600160a01b031660009081526001602052604090205460ff1690565b604051901515815260200161006d565b6000306001600160a01b0316632ea72a49836040516020016100e79190610695565b6040516020818303038152906040526040518263ffffffff1660e01b81526004016101129190610811565b6020604051808303816000875af1158015610131573d6000803e3d6000fd5b505050506040513d601f19601f820116820180604052508101906101559190610824565b92915050565b6000600260005414156101b55760405162461bcd60e51b815260206004820152601f60248201527f5265656e7472616e637947756172643a207265656e7472616e742063616c6c0060448201526064015b60405180910390fd5b600260009081556101c6848461028f565b6001600160a01b03811660009081526001602052604090205490915060ff16156102245760405162461bcd60e51b815260206004820152600f60248201526e111554131250d0551157d0d2125311608a1b60448201526064016101ac565b6001600160a01b038116600081815260016020818152604092839020805460ff19169092179091558151338152908101929092527f7da70c4e5387d7038610b79ca7d304caaef815826e51e67cf247135387a79bce910160405180910390a160016000559392505050565b60008061029e83850185610adf565b905060006102cb7f0000000000000000000000000000000000000000000000000000000000000000610335565b604051631df9157560e21b81529091506001600160a01b038216906377e455d4906102fa908590600401610ce7565b600060405180830381600087803b15801561031457600080fd5b505af1158015610328573d6000803e3d6000fd5b5092979650505050505050565b6000604051733d602d80600a3d3981f3363d3d373d3d3d363d7360601b81528260601b60148201526e5af43d82803e903d91602b57fd5bf360881b60288201526037816000f09150506001600160a01b0381166103cd5760405162461bcd60e51b8152602060048201526016602482015275115490cc4c4d8dce8818dc99585d194819985a5b195960521b60448201526064016101ac565b919050565b6000602082840312156103e457600080fd5b81356001600160401b038111156103fa57600080fd5b8201610140818503121561040d57600080fd5b9392505050565b6000806020838503121561042757600080fd5b82356001600160401b038082111561043e57600080fd5b818501915085601f83011261045257600080fd5b81358181111561046157600080fd5b86602082850101111561047357600080fd5b60209290920196919550909350505050565b6001600160a01b03169052565b6001600160a01b03811681146104a757600080fd5b50565b80356103cd81610492565b6000602082840312156104c757600080fd5b813561040d81610492565b6000808335601e198436030181126104e957600080fd5b83016020810192503590506001600160401b0381111561050857600080fd5b80360383131561051757600080fd5b9250929050565b81835281816020850137506000828201602090810191909152601f909101601f19169091010190565b60008235607e1983360301811261055d57600080fd5b90910192915050565b6000808335601e1984360301811261057d57600080fd5b83016020810192503590506001600160401b0381111561059c57600080fd5b8060051b360383131561051757600080fd5b81835260006001600160fb1b038311156105c757600080fd5b8260051b8083602087013760009401602001938452509192915050565b6000608083016105f48384610566565b608086528281845260a08701905060a08260051b88010193508260005b8381101561064e57888603609f1901835261062c82866104d2565b61063788828461051e565b975050506020928301929190910190600101610611565b50505050506106606020840184610566565b85830360208701526106738382846105ae565b9250505060408301356040850152606083013560608501528091505092915050565b6020815260006106a583846104d2565b6101408060208601526106bd6101608601838561051e565b92506106cc60208701876104d2565b9250601f19808786030160408801526106e685858461051e565b94506106f560408901896104d2565b945091508087860301606088015261070e85858461051e565b945060608801356080880152610726608089016104aa565b935061073560a0880185610485565b61074160a089016104aa565b935061075060c0880185610485565b61075c60c089016104aa565b935061076b60e0880185610485565b610100935060e0880135848801526107848489016104aa565b9350610120915061079782880185610485565b6107a382890189610547565b93508087860301838801525050506107bb82826105e4565b95945050505050565b6000815180845260005b818110156107ea576020818501810151868301820152016107ce565b818111156107fc576000602083870101525b50601f01601f19169290920160200192915050565b60208152600061040d60208301846107c4565b60006020828403121561083657600080fd5b815161040d81610492565b634e487b7160e01b600052604160045260246000fd5b604051608081016001600160401b038111828210171561087957610879610841565b60405290565b60405161014081016001600160401b038111828210171561087957610879610841565b604051601f8201601f191681016001600160401b03811182821017156108ca576108ca610841565b604052919050565b60006001600160401b038311156108eb576108eb610841565b6108fe601f8401601f19166020016108a2565b905082815283838301111561091257600080fd5b828260208301376000602084830101529392505050565b600082601f83011261093a57600080fd5b61040d838335602085016108d2565b60006001600160401b0382111561096257610962610841565b5060051b60200190565b600082601f83011261097d57600080fd5b8135602061099261098d83610949565b6108a2565b82815260059290921b840181019181810190868411156109b157600080fd5b8286015b848110156109cc57803583529183019183016109b5565b509695505050505050565b6000608082840312156109e957600080fd5b6109f1610857565b905081356001600160401b0380821115610a0a57600080fd5b818401915084601f830112610a1e57600080fd5b81356020610a2e61098d83610949565b82815260059290921b84018101918181019088841115610a4d57600080fd5b8286015b84811015610a9a57803586811115610a695760008081fd5b8701603f81018b13610a7b5760008081fd5b610a8c8b86830135604084016108d2565b845250918301918301610a51565b5086525085810135935082841115610ab157600080fd5b610abd8785880161096c565b8186015250505050604082013560408201526060820135606082015292915050565b600060208284031215610af157600080fd5b81356001600160401b0380821115610b0857600080fd5b908301906101408286031215610b1d57600080fd5b610b2561087f565b823582811115610b3457600080fd5b610b4087828601610929565b825250602083013582811115610b5557600080fd5b610b6187828601610929565b602083015250604083013582811115610b7957600080fd5b610b8587828601610929565b60408301525060608301356060820152610ba1608084016104aa565b6080820152610bb260a084016104aa565b60a0820152610bc360c084016104aa565b60c082015260e083013560e0820152610100610be08185016104aa565b908201526101208381013583811115610bf857600080fd5b610c04888287016109d7565b918301919091525095945050505050565b600081518084526020808501945080840160005b83811015610c4557815187529582019590820190600101610c29565b509495945050505050565b60006080830182516080855281815180845260a08701915060a08160051b88010193506020808401935060005b82811015610cab57609f19898703018452610c998686516107c4565b95509381019392810192600101610c7d565b5080870151935087850381890152505050610cc68282610c15565b91505060408301516040850152606083015160608501528091505092915050565b6020815260008251610140806020850152610d066101608501836107c4565b91506020850151601f1980868503016040870152610d2484836107c4565b93506040870151915080868503016060870152610d4184836107c4565b93506060870151608087015260808701519150610d6160a0870183610485565b60a08701519150610d7560c0870183610485565b60c08701519150610d8960e0870183610485565b60e0870151610100878101919091528701519150610120610dac81880184610485565b870151868503909101838701529050610dc58382610c50565b969550505050505056fea264697066735822122011f010f0f1f2b440b7bc4c60cd9d56ffe9c6cc3d8b8382fec961cfc3efe509f164736f6c634300080a003360a06040523480156200001157600080fd5b506002808060066007600b6200002982600462000087565b62000035919062000087565b62000041919062000087565b6200004d919062000087565b62000059919062000087565b62000065919062000087565b62000071919062000087565b6200007e90600562000087565b608052620000ae565b60008219821115620000a957634e487b7160e01b600052601160045260246000fd5b500190565b60805161568b620000d160003960008181612447015261249d015261568b6000f3fe6080604052600436106101685760003560e01c806301ffc9a71461016d57806305dc5e82146101a257806306fdde03146101d7578063081812fc146101f9578063095ea7b31461022657806318160ddd1461024857806323b872dd1461026b578063248a9ca31461028b5780632a55205a146102ab5780632f2ff15d146102d957806336568abe146102f95780633bbed4a0146103195780633ccfd60b1461033957806342842e0e1461034e57806342966c681461036e5780636352211e1461038e57806370a08231146103ae578063715018a6146103ce57806377e455d4146103e35780638da5cb5b1461040357806391d148541461041857806393669a151461043857806395d89b411461044b578063a217fddf14610460578063a22cb46514610475578063b4da5e9a14610495578063b88d4fde146104a8578063c87b56dd146104c8578063d547741f146104e8578063e985e9c514610508578063f2fde38b14610528575b600080fd5b34801561017957600080fd5b5061018d6101883660046143d8565b610548565b60405190151581526020015b60405180910390f35b3480156101ae57600080fd5b506101c26101bd36600461441a565b610559565b60408051928352602083019190915201610199565b3480156101e357600080fd5b506101ec61060d565b604051610199919061449e565b34801561020557600080fd5b506102196102143660046144b1565b6106a8565b60405161019991906144d7565b34801561023257600080fd5b5061024661024136600461441a565b6106f5565b005b34801561025457600080fd5b5061025d6107a3565b604051908152602001610199565b34801561027757600080fd5b506102466102863660046144eb565b6107c3565b34801561029757600080fd5b5061025d6102a63660046144b1565b6109a3565b3480156102b757600080fd5b506102cb6102c636600461452c565b6109b8565b60405161019992919061454e565b3480156102e557600080fd5b506102466102f4366004614567565b610a18565b34801561030557600080fd5b50610246610314366004614567565b610a39565b34801561032557600080fd5b50610246610334366004614597565b610abc565b34801561034557600080fd5b50610246610bd0565b34801561035a57600080fd5b506102466103693660046144eb565b610d04565b34801561037a57600080fd5b506102466103893660046144b1565b610d1f565b34801561039a57600080fd5b506102196103a93660046144b1565b610d2d565b3480156103ba57600080fd5b5061025d6103c9366004614597565b610d38565b3480156103da57600080fd5b50610246610da0565b3480156103ef57600080fd5b506102466103fe366004614860565b610db4565b34801561040f57600080fd5b50610219611179565b34801561042457600080fd5b5061018d610433366004614567565b611188565b610246610446366004614996565b6111b3565b34801561045757600080fd5b506101ec6111f6565b34801561046c57600080fd5b5061025d600081565b34801561048157600080fd5b506102466104903660046149df565b61120e565b6102466104a3366004614a0d565b6112b5565b3480156104b457600080fd5b506102466104c3366004614a1f565b6112cd565b3480156104d457600080fd5b506101ec6104e33660046144b1565b611317565b3480156104f457600080fd5b50610246610503366004614567565b611371565b34801561051457600080fd5b5061018d610523366004614a8a565b61138d565b34801561053457600080fd5b50610246610543366004614597565b6113ca565b600061055382611440565b92915050565b60cc5460009081908190610575906001600160a01b0316611475565b90506105a4858560405160200161058d92919061454e565b604051602081830303815290604052826000611499565b602081015181516105b790600290614ace565b815181106105c7576105c7614ae5565b60200260200101518160200151600183600001516105e59190614ace565b815181106105f5576105f5614ae5565b60200260200101518093508194505050509250929050565b606061061761165e565b600201805461062590614afb565b80601f016020809104026020016040519081016040528092919081815260200182805461065190614afb565b801561069e5780601f106106735761010080835404028352916020019161069e565b820191906000526020600020905b81548152906001019060200180831161068157829003601f168201915b5050505050905090565b60006106b382611682565b6106d0576040516333d1c03960e21b815260040160405180910390fd5b6106d861165e565b60009283526006016020525060409020546001600160a01b031690565b600061070082610d2d565b9050336001600160a01b038216146107395761071c813361138d565b610739576040516367d9dca160e11b815260040160405180910390fd5b8261074261165e565b6000848152600691909101602052604080822080546001600160a01b0319166001600160a01b0394851617905551849286811692908516917f8c5be1e5ebec7d5bd14f71427d1e84f3dd0314c0f7b2291e5b200ac8c7c3b9259190a4505050565b600060016107af61165e565b600101546107bb61165e565b540303919050565b60006107ce826116cb565b9050836001600160a01b0316816001600160a01b0316146108015760405162a1148160e81b815260040160405180910390fd5b60008061080d84611761565b91509150610832818761081d3390565b6001600160a01b039081169116811491141790565b61085d57610840863361138d565b61085d57604051632ce44b5f60e11b815260040160405180910390fd5b6001600160a01b03851661088457604051633a954ecd60e21b815260040160405180910390fd5b801561088f57600082555b61089761165e565b6001600160a01b03871660009081526005919091016020526040902080546000190190556108c361165e565b6001600160a01b038616600090815260059190910160205260409020805460010190556108f485600160e11b611789565b6108fc61165e565b60008681526004919091016020526040902055600160e11b831661096b576001840161092661165e565b600082815260049190910160205260409020546109695761094561165e565b548114610969578361095561165e565b600083815260049190910160205260409020555b505b83856001600160a01b0316876001600160a01b031660008051602061561683398151915260405160405180910390a45b505050505050565b60009081526097602052604090206001015490565b60ce5460009081906001600160a01b03166109e257505060ce546001600160a01b03166000610a11565b60ce5460cf546001600160a01b039091169061271090610a029086614b30565b610a0c9190614b65565b915091505b9250929050565b610a21826109a3565b610a2a8161179e565b610a3483836117a8565b505050565b6001600160a01b0381163314610aae5760405162461bcd60e51b815260206004820152602f60248201527f416363657373436f6e74726f6c3a2063616e206f6e6c792072656e6f756e636560448201526e103937b632b9903337b91039b2b63360891b60648201526084015b60405180910390fd5b610ab8828261182e565b5050565b60ce546001600160a01b0316331480610ade575060ce546001600160a01b0316155b610b1b5760405162461bcd60e51b815260206004820152600e60248201526d524543495049454e545f4f4e4c5960901b6044820152606401610aa5565b6001600160a01b0381163b158015610b3b57506001600160a01b03811615155b610b7a5760405162461bcd60e51b815260206004820152601060248201526f24a72b20a624a22fa0a2222922a9a99760811b6044820152606401610aa5565b60ce80546001600160a01b0319166001600160a01b0383161790556040517fff2d07bd188a9eb41acbc4a7db39e18956c95ab7f54f434d97849bf6206e577c90610bc59083906144d7565b60405180910390a150565b600060cb5411610c0e5760405162461bcd60e51b815260206004820152600960248201526816915493d7d195539160ba1b6044820152606401610aa5565b60cb5460ca80548201908190556040517ff279e6a1f5e320cca91135676d9cb6e44ca8a08c0b88342bcdb1144f6511b56892610c4b923392614b79565b60405180910390a160cd546001600160a01b0316610c815760ce5460cb54610c7c916001600160a01b031690611895565b610cfd565b60cd5460ce5460cb5460405163a9059cbb60e01b81526001600160a01b039384169363a9059cbb93610cb89391169160040161454e565b6020604051808303816000875af1158015610cd7573d6000803e3d6000fd5b505050506040513d601f19601f82011682018060405250810190610cfb9190614b9a565b505b600060cb55565b610a34838383604051806020016040528060008152506112cd565b610d2a8160016119ab565b50565b6000610553826116cb565b60006001600160a01b038216610d61576040516323d3ad8160e21b815260040160405180910390fd5b6001600160401b03610d7161165e565b6005016000846001600160a01b03166001600160a01b0316815260200190815260200160002054169050919050565b610da8611b0b565b610db26000611b6a565b565b610dbc611bbc565b54610100900460ff16610ddb57610dd1611bbc565b5460ff1615610ddf565b303b155b610e395760405162461bcd60e51b815260206004820152603760248201526000805160206155d6833981519152604482015276081a5cc8185b1c9958591e481a5b9a5d1a585b1a5e9959604a1b6064820152608401610aa5565b6000610e43611bbc565b54610100900460ff161590508015610e8f576001610e5f611bbc565b80549115156101000261ff00199092169190911790556001610e7f611bbc565b805460ff19169115159190911790555b600054610100900460ff1615808015610eaf5750600054600160ff909116105b80610ec95750303b158015610ec9575060005460ff166001145b610f2c5760405162461bcd60e51b815260206004820152602e60248201527f496e697469616c697a61626c653a20636f6e747261637420697320616c72656160448201526d191e481a5b9a5d1a585b1a5e995960921b6064820152608401610aa5565b6000805460ff191660011790558015610f4f576000805461ff0019166101001790555b610f6183600001518460200151611be0565b610f69611c17565b606083015160c95560408301518051610f8a9160d0916020909101906142fa565b5060e083015160cf81905561271011610fd35760405162461bcd60e51b815260206004820152600b60248201526a4d41585f524f59414c545960a81b6044820152606401610aa5565b610fe08360800151610abc565b610fed8360a001516113ca565b60c08301516001600160a01b03166110315760405162461bcd60e51b8152602060048201526007602482015266182fa0a226a4a760c91b6044820152606401610aa5565b6110576000805160206156368339815191526000805160206155f6833981519152611c46565b6110736000805160206155f68339815191528460c001516117a8565b61010083015160cd80546001600160a01b0319166001600160a01b039092169190911790556101208301516110b0906110ab90611c99565b611d9b565b60cc80546001600160a01b0319166001600160a01b03929092169190911790556040517f3c10ccec861768d8e5f1f7e5e57ae7f992a3f886d6ea45e344b8c232caa4b54090611100908590614c96565b60405180910390a1801561114e576000805461ff0019169055604051600181527f7f26b83ff96e1f2b6a682f133852f6798a09c465da95921460cefb38474024989060200160405180910390a15b508015610ab857600061115f611bbc565b80549115156101000261ff00199092169190911790555050565b6033546001600160a01b031690565b60009182526097602090815260408084206001600160a01b0393909316845291905290205460ff1690565b6000805160206156368339815191526111cb8161179e565b6111ef85604051806060016040528087815260200186815260200185815250611e09565b5050505050565b606061120061165e565b600301805461062590614afb565b6001600160a01b0382163314156112385760405163b06307db60e01b815260040160405180910390fd5b8061124161165e565b336000818152600792909201602090815260408084206001600160a01b03881680865290835293819020805460ff19169515159590951790945592518415158152919290917f17307eab39ab6107e8899845ad3d59bd9653f200f220920489ca2b5937696c31910160405180910390a35050565b610d2a336112c836849003840184614d7e565b611e09565b6112d88484846107c3565b6001600160a01b0383163b15611311576112f4848484846120c5565b611311576040516368d2bf6b60e11b815260040160405180910390fd5b50505050565b606061132282611682565b61133f57604051630a14c4b560e41b815260040160405180910390fd5b60d061134a836121ae565b60405160200161135b929190614df5565b6040516020818303038152906040529050919050565b61137a826109a3565b6113838161179e565b610a34838361182e565b600061139761165e565b6001600160a01b039384166000908152600791909101602090815260408083209490951682529290925250205460ff1690565b6113d2611b0b565b6001600160a01b0381166114375760405162461bcd60e51b815260206004820152602660248201527f4f776e61626c653a206e6577206f776e657220697320746865207a65726f206160448201526564647265737360d01b6064820152608401610aa5565b610d2a81611b6a565b60006001600160e01b03198216637965db0b60e01b148061055357506301ffc9a760e01b6001600160e01b0319831614610553565b61147d61437e565b611486826122ab565b8060200190518101906105539190614fd6565b602082015151825111156114bf5760405162461bcd60e51b8152600401610aa5906150b8565b602082810151604084015183830201909101516060840151608085015182516000948594859492939092915b84881015611651576002880197508784015180601e1a975080601f1a965050600587101561161a57600187141561155d5781608087166115285750825b607f87168151811061153957600080fd5b8b516020820260200183015160208202602001850152600181018d52505050611626565b600287141561159457895180871061157457600080fd5b6020870260200182015160208202602001830152600181018b5250611626565b60038714156115ad576115a88b8b886122bb565b611626565b60048714156115de576115a88a6040516020016115ca919061514c565b604051602081830303815290604052612402565b866115a85760405162461bcd60e51b815260206004820152600c60248201526b14d2d25417d4915353d5915160a21b6044820152606401610aa5565b6116268b8b8989612445565b60208a0151518a51111561164c5760405162461bcd60e51b8152600401610aa5906150b8565b6114eb565b5050505050505050505050565b7f2569078dfb4b0305704d3008e7403993ae9601b85f7ae5e742de3de8f8011c4090565b60008160011115801561169c575061169861165e565b5482105b80156105535750600160e01b6116b061165e565b60008481526004919091016020526040902054161592915050565b60008180600111611748576116de61165e565b548110156117485760006116f061165e565b600083815260049190910160205260409020549050600160e01b8116611746575b8061173f5761171e61165e565b60001990920160008181526004939093016020526040909220549050611711565b9392505050565b505b604051636f96cda160e11b815260040160405180910390fd5b600080600061176e61165e565b60009485526006016020525050604090912080549092909150565b4260a01b176001600160a01b03919091161790565b610d2a81336126c4565b6117b28282611188565b610ab85760008281526097602090815260408083206001600160a01b03851684529091529020805460ff191660011790556117ea3390565b6001600160a01b0316816001600160a01b0316837f2f8788117e7eff1d82e926ec794901d17c78024a50270940304540a733656f0d60405160405180910390a45050565b6118388282611188565b15610ab85760008281526097602090815260408083206001600160a01b0385168085529252808320805460ff1916905551339285917ff6391f5c32d9c69d2a47ea670b442974b53935d1edc7fd64eb21e047a839171b9190a45050565b804710156118e55760405162461bcd60e51b815260206004820152601d60248201527f416464726573733a20696e73756666696369656e742062616c616e63650000006044820152606401610aa5565b6000826001600160a01b03168260405160006040518083038185875af1925050503d8060008114611932576040519150601f19603f3d011682016040523d82523d6000602084013e611937565b606091505b5050905080610a345760405162461bcd60e51b815260206004820152603a60248201527f416464726573733a20756e61626c6520746f2073656e642076616c75652c20726044820152791958da5c1a595b9d081b585e481a185d99481c995d995c9d195960321b6064820152608401610aa5565b60006119b6836116cb565b9050806000806119c586611761565b915091508415611a05576119da81843361081d565b611a05576119e8833361138d565b611a0557604051632ce44b5f60e11b815260040160405180910390fd5b8015611a1057600082555b6001600160801b03611a2061165e565b6001600160a01b0385166000908152600591909101602052604090208054919091019055611a5283600360e01b611789565b611a5a61165e565b60008881526004919091016020526040902055600160e11b8416611ac95760018601611a8461165e565b60008281526004919091016020526040902054611ac757611aa361165e565b548114611ac75784611ab361165e565b600083815260049190910160205260409020555b505b60405186906000906001600160a01b03861690600080516020615616833981519152908390a4611af761165e565b600190810180549091019055505050505050565b33611b14611179565b6001600160a01b031614610db25760405162461bcd60e51b815260206004820181905260248201527f4f776e61626c653a2063616c6c6572206973206e6f7420746865206f776e65726044820152606401610aa5565b603380546001600160a01b038381166001600160a01b0319831681179093556040519116919082907f8be0079c531659141344cd1fd0a4f28419497f9722a3daafe3b4186f6b6457e090600090a35050565b7fee151c8401928dc223602bb187aff91b9a56c7cae5476ef1b3287b085a16c85f90565b611be8611bbc565b54610100900460ff16611c0d5760405162461bcd60e51b8152600401610aa59061515f565b610ab88282612728565b600054610100900460ff16611c3e5760405162461bcd60e51b8152600401610aa5906151a1565b610db26127a4565b6000611c51836109a3565b600084815260976020526040808220600101859055519192508391839186917fbd79b86ffe0ab8e8776151514217cd7cacd52c909f66475c3af44e129f0b00ff9190a4505050565b611ca161437e565b815151611cdc5760405162461bcd60e51b8152602060048201526009602482015268305f534f555243455360b81b6044820152606401610aa5565b6040518060a001604052806000815260200183604001516001600160401b03811115611d0a57611d0a6145b4565b604051908082528060200260200182016040528015611d33578160200160208202803683370190505b508152602001836000015181526020018360200151815260200183606001516001600160401b03811115611d6957611d696145b4565b604051908082528060200260200182016040528015611d92578160200160208202803683370190505b50905292915050565b600080611dc683604051602001611db2919061514c565b6040516020818303038152906040526127d4565b90507ff95eed63f55d96a35306669cc3b5f652f8d44552e3e4b17b2f78f13571114abd338285604051611dfb939291906151ec565b60405180910390a192915050565b8060200151600010611e495760405162461bcd60e51b8152602060048201526009602482015268305f4d494e494d554d60b81b6044820152606401610aa5565b806040015181602001511115611e985760405162461bcd60e51b81526020600482015260146024820152731352539253555357d3d5915497d11154d254915160621b6044820152606401610aa5565b6000611ea2612839565b60c954611eaf9190614ace565b90506000611eca82846040015161284c90919063ffffffff16565b9050600080611ed98684610559565b90925090506000611eea838561284c565b90508560200151811015611f355760405162461bcd60e51b8152602060048201526012602482015271494e53554646494349454e545f53544f434b60701b6044820152606401610aa5565b8551821115611f765760405162461bcd60e51b815260206004820152600d60248201526c4d4158494d554d5f505249434560981b6044820152606401610aa5565b6000611f828284614b30565b60cd549091506001600160a01b0316611ff15780341015611fd95760405162461bcd60e51b8152602060048201526011602482015270125394d551919250d251539517d1955391607a1b6044820152606401610aa5565b611fec33611fe78334614ace565b611895565b61206e565b60cd546040516323b872dd60e01b8152336004820152306024820152604481018390526001600160a01b03909116906323b872dd906064016020604051808303816000875af1158015612048573d6000803e3d6000fd5b505050506040513d601f19601f8201168201806040525081019061206c9190614b9a565b505b60cb8054820190556120808883612862565b7f1cbc5ab135991bd2b6a4b034a04aa2aa086dac1371cb9b16b8b5e2ed6b036bed8883836040516120b393929190614b79565b60405180910390a15050505050505050565b604051630a85bd0160e11b81526000906001600160a01b0385169063150b7a02906120fa903390899088908890600401615218565b6020604051808303816000875af1925050508015612135575060408051601f3d908101601f191682019092526121329181019061524b565b60015b612190573d808015612163576040519150601f19603f3d011682016040523d82523d6000602084013e612168565b606091505b508051612188576040516368d2bf6b60e11b815260040160405180910390fd5b805181602001fd5b6001600160e01b031916630a85bd0160e11b1490505b949350505050565b6060816121d25750506040805180820190915260018152600360fc1b602082015290565b8160005b81156121fc57806121e681615268565b91506121f59050600a83614b65565b91506121d6565b6000816001600160401b03811115612216576122166145b4565b6040519080825280601f01601f191660200182016040528015612240576020820181803683370190505b5090505b84156121a657612255600183614ace565b9150612262600a86615283565b61226d906030615297565b60f81b81838151811061228257612282614ae5565b60200101906001600160f81b031916908160001a9053506122a4600a86614b65565b9450612244565b6060610553826001600019612971565b8151600019600583901c918290030183526007821690610100600384811c1681901c9190829003906001016000816001600160401b03811115612300576123006145b4565b604051908082528060200260200182016040528015612329578160200160208202803683370190505b50905060005b82811015612380578760200151818960000151018151811061235357612353614ae5565b602002602001015182828151811061236d5761236d614ae5565b602090810291909101015260010161232f565b5060005b6101008110156123f75760005b838110156123e457848286038483815181106123af576123af614ae5565b6020026020010151901b901c896080015182815181106123d1576123d1614ae5565b6020908102919091010152600101612391565b506123f0898988611499565b8401612384565b505050505050505050565b610d2a81604051602401612416919061449e565b60408051601f198184030181529190526020810180516001600160e01b03166305f3bfab60e11b179052612a22565b7f00000000000000000000000000000000000000000000000000000000000000008210156124805761247b836005840383612a43565b611311565b6000808580602001905181019061249791906152af565b915091507f000000000000000000000000000000000000000000000000000000000000000084039350600984106124e05760405162461bcd60e51b8152600401610aa5906152d3565b60028414156125145760cb54602086015186518151811061250357612503614ae5565b6020026020010181815250506126b5565b60018414156125375760ca54602086015186518151811061250357612503614ae5565b836125565760c954602086015186518151811061250357612503614ae5565b600384141561257a5781856020015186600001518151811061250357612503614ae5565b600484141561259e5780856020015186600001518151811061250357612503614ae5565b60058414156125c6576125af6107a3565b602086015186518151811061250357612503614ae5565b60068414156125d7576125af612839565b600784141561264857600085602001516001876000015103815181106125ff576125ff614ae5565b6020026020010151905061261281612af5565b866020015160018860000151038151811061262f5761262f614ae5565b60209081029190910101525084516000190185526126b5565b60088414156126b5576000856020015160018760000151038151811061267057612670614ae5565b6020026020010151905061268381612b3a565b86602001516001886000015103815181106126a0576126a0614ae5565b60209081029190910101525084516000190185525b50508251600101835250505050565b6126ce8282611188565b610ab8576126e6816001600160a01b03166014612b4e565b6126f1836020612b4e565b6040516020016127029291906152f7565b60408051601f198184030181529082905262461bcd60e51b8252610aa59160040161449e565b612730611bbc565b54610100900460ff166127555760405162461bcd60e51b8152600401610aa59061515f565b8161275e61165e565b60020190805190602001906127749291906142fa565b508061277e61165e565b60030190805190602001906127949291906142fa565b50600161279f61165e565b555050565b600054610100900460ff166127cb5760405162461bcd60e51b8152600401610aa5906151a1565b610db233611b6a565b6000806127ff836040516020016127eb9190615366565b604051602081830303815290604052612ce9565b90508051602082016000f091506001600160a01b0382166128335760405163046a55db60e11b815260040160405180910390fd5b50919050565b6000600161284561165e565b5403919050565b600081831061285b578161173f565b5090919050565b600061286c61165e565b5490508161288d5760405163b562e8dd60e01b815260040160405180910390fd5b6001600160401b01820261289f61165e565b6001600160a01b03851660009081526005919091016020526040902080549190910190556128d3836001841460e11b611789565b6128db61165e565b600083815260049190910160205260408120919091556001600160a01b0384169083830190839083906000805160206156168339815191528180a4600183015b8181146129415780836000600080516020615616833981519152600080a460010161291b565b508161295f57604051622e076360e81b815260040160405180910390fd5b8061296861165e565b5550610a349050565b6060833b8061299057505060408051602081019091526000815261173f565b808411156129ae57505060408051602081019091526000815261173f565b838310156129e05760405163162544fd60e11b8152600481018290526024810185905260448101849052606401610aa5565b83830384820360008282106129f557826129f7565b815b60408051603f8301601f19168101909152818152955090508087602087018a3c505050509392505050565b80516a636f6e736f6c652e6c6f67602083016000808483855afa5050505050565b6004821015612a5757610a34838383612cff565b601d821015612a9e57600b821015612a7757610a34836004840383612dcb565b6016821015612a8f57610a3483600a19840183613055565b610a348360151984018361344a565b6023821015612ab657610a3483601c19840183613615565b6025821015612ace57610a34836022198401836139c1565b6027821015612ae657610a3483602419840183613b10565b610a3483602619840183613c5d565b60006001600160401b036040612b0961165e565b6005016000856001600160a01b03166001600160a01b0316815260200190815260200160002054901c169050919050565b60006001600160401b036080612b0961165e565b60606000612b5d836002614b30565b612b68906002615297565b6001600160401b03811115612b7f57612b7f6145b4565b6040519080825280601f01601f191660200182016040528015612ba9576020820181803683370190505b509050600360fc1b81600081518110612bc457612bc4614ae5565b60200101906001600160f81b031916908160001a905350600f60fb1b81600181518110612bf357612bf3614ae5565b60200101906001600160f81b031916908160001a9053506000612c17846002614b30565b612c22906001615297565b90505b6001811115612c9a576f181899199a1a9b1b9c1cb0b131b232b360811b85600f1660108110612c5657612c56614ae5565b1a60f81b828281518110612c6c57612c6c614ae5565b60200101906001600160f81b031916908160001a90535060049490941c93612c938161538c565b9050612c25565b50831561173f5760405162461bcd60e51b815260206004820181905260248201527f537472696e67733a20686578206c656e67746820696e73756666696369656e746044820152606401610aa5565b606081518260405160200161135b9291906153a3565b60048210612d1f5760405162461bcd60e51b8152600401610aa5906152d3565b81612d5057438360200151846000015181518110612d3f57612d3f614ae5565b602002602001018181525050612dc0565b6001821415612d7457428360200151846000015181518110612d3f57612d3f614ae5565b6002821415612d9857602083015183518151339291908110612d3f57612d3f614ae5565b602083015183518151309291908110612db357612db3614ae5565b6020026020010181815250505b505080516001019052565b60078210612deb5760405162461bcd60e51b8152600401610aa5906152d3565b6002821015612efb5782516001190182612e785783602001518160010181518110612e1857612e18614ae5565b6020026020010151612e508386602001518481518110612e3a57612e3a614ae5565b6020026020010151613f6490919063ffffffff16565b0284602001518281518110612e6757612e67614ae5565b602002602001018181525050612eed565b6001831415612eed5783602001518160010181518110612e9a57612e9a614ae5565b6020026020010151612ebc8386602001518481518110612e3a57612e3a614ae5565b81612ec957612ec9614b4f565b0484602001518281518110612ee057612ee0614ae5565b6020026020010181815250505b508251600019018352505050565b6005821015612fee578251600019016002831415612f5457612f2d8285602001518381518110612e3a57612e3a614ae5565b84602001518281518110612f4357612f43614ae5565b602002602001018181525050611311565b6003831415612f8d57612f2d8285602001518381518110612f7757612f77614ae5565b6020026020010151613fc790919063ffffffff16565b600483141561131157612fc68285602001518381518110612fb057612fb0614ae5565b602002602001015161400790919063ffffffff16565b84602001518281518110612fdc57612fdc614ae5565b60200260200101818152505050505050565b600582141561303057670de0b6b3a7640000836020015184600001518151811061301a5761301a614ae5565b6020908102919091010152505080516001019052565b6006821415610a345760128360200151846000015181518110612db357612db3614ae5565b600b82106130755760405162461bcd60e51b8152600401610aa5906152d3565b8251602084015180518383039260001901918391600091908390811061309d5761309d614ae5565b6020026020010151905060008614156130f5575b828210156130f05760208701518051600190930192839081106130d6576130d6614ae5565b6020026020010151816130e99190615297565b90506130b1565b61341b565b6001861415613153575b828210801561310f575060001981105b156130f057818060010192505061314c8760200151838151811061313557613135614ae5565b60200260200101518261405290919063ffffffff16565b90506130ff565b600286141561319c575b828210156130f057602087015180516001909301928390811061318257613182614ae5565b6020026020010151816131959190614ace565b905061315d565b60038614156131f9575b82821080156131b55750806000105b156130f05781806001019250506131f2876020015183815181106131db576131db614ae5565b60200260200101518261406f90919063ffffffff16565b90506131a6565b6004861415613242575b828210156130f057602087015180516001909301928390811061322857613228614ae5565b60200260200101518161323b9190614b30565b9050613203565b60058614156132a0575b828210801561325c575060001981105b156130f05781806001019250506132998760200151838151811061328257613282614ae5565b60200260200101518261408590919063ffffffff16565b905061324c565b60068614156132e9575b828210156130f05760208701518051600190930192839081106132cf576132cf614ae5565b6020026020010151816132e29190614b65565b90506132aa565b6007861415613332575b828210156130f057602087015180516001909301928390811061331857613318614ae5565b60200260200101518161332b9190615283565b90506132f3565b600886141561337b575b828210156130f057602087015180516001909301928390811061336157613361614ae5565b60200260200101518161337491906154d8565b905061333c565b60098614156133cd5760005b838310156133c75760208801518051600190940193849081106133ac576133ac614ae5565b60200260200101519050818110156133c2578091505b613387565b5061341b565b600a86141561341b5760005b838310156134195760208801518051600190940193849081106133fe576133fe614ae5565b6020026020010151905081811115613414578091505b6133d9565b505b808760200151858151811061343257613432614ae5565b60209081029190910101525050506001019092525050565b6007821061346a5760405162461bcd60e51b8152600401610aa5906152d3565b825160208085015181830201018380156134b357600181146134cc576002811461350957600381146135315760048114613559576005811461358157600681146135c85761099b565b826134bd57600080fd5b601f198201805115905261099b565b60038310156134da57600080fd5b60011983018652605f198201805180156134fa5760208201518252613502565b604082015182525b505061099b565b600283101561351757600080fd5b60018303865260408203602081015181511481525061099b565b600283101561353f57600080fd5b60018303865260408203602081015181511081525061099b565b600283101561356757600080fd5b60018303865260408203602081015181511181525061099b565b8383101561358e57600080fd5b83156135c3576001840383038652602084028203805b838110156135025780516135bb5760008252613502565b6020016135a4565b61099b565b838310156135d557600080fd5b831561099b576001840383038652602084028203805b8381101561360b578051801561360257825261360b565b506020016135eb565b5050505050505050565b600682106136355760405162461bcd60e51b8152600401610aa5906152d3565b6000826136f8575082516000198101845260208401518051600119909201918290811061366457613664614ae5565b60200260200101516001600160a01b031663e053ea318560200151836001018151811061369357613693614ae5565b60200260200101516040518263ffffffff1660e01b81526004016136b791906144d7565b602060405180830381865afa1580156136d4573d6000803e3d6000fd5b505050506040513d601f19601f82011682018060405250810190612f2d91906154e4565b600183141561373557600019846020015185600001518151811061371e5761371e614ae5565b602090810291909101015283516001018452611311565b600283141561375a576000846020015185600001518151811061371e5761371e614ae5565b60038314156137f0575082516001190180845260208401518051600091908390811061378857613788614ae5565b602002602001015190506000856020015183600101815181106137ad576137ad614ae5565b602002602001015190506137c182826140b4565b866020015184815181106137d7576137d7614ae5565b6020908102919091010152505083516001018452611311565b600483141561389a575082516001190180845260208401518051600f80851692600486901c90911691600091908590811061382d5761382d614ae5565b6020026020010151905060008760200151856001018151811061385257613852614ae5565b6020026020010151905061386882858584614113565b8860200151868151811061387e5761387e614ae5565b6020908102919091010152505085516001018652506113119050565b600583141561131157508251600019601f8316918290030180855290600783901c906003600585901c1690836000826001600160401b038111156138e0576138e06145b4565b604051908082528060200260200182016040528015613909578160200160208202803683370190505b50905060005b8381101561395e578960200151838151811061392d5761392d614ae5565b602002602001015182828151811061394757613947614ae5565b60209081029190910101526001928301920161390f565b5060008960200151838151811061397757613977614ae5565b6020026020010151905061398d8282888861416f565b8a6020015188815181106139a3576139a3614ae5565b60209081029190910101525050875160010188525050505050505050565b600282106139e15760405162461bcd60e51b8152600401610aa5906152d3565b81613aa257825160001981018452602084015180516001199092019182908110613a0d57613a0d614ae5565b60200260200101516001600160a01b03166370a082318560200151866000015181518110613a3d57613a3d614ae5565b60200260200101516040518263ffffffff1660e01b8152600401613a6191906144d7565b602060405180830381865afa158015613a7e573d6000803e3d6000fd5b505050506040513d601f19601f82011682018060405250810190612fc691906154e4565b6001821415610a34578251602084015180516000199092019182908110613acb57613acb614ae5565b60200260200101516001600160a01b03166318160ddd6040518163ffffffff1660e01b8152600401602060405180830381865afa158015613a7e573d6000803e3d6000fd5b60028210613b305760405162461bcd60e51b8152600401610aa5906152d3565b8251600019810184526001190182613b885783602001518181518110613b5857613b58614ae5565b60200260200101516001600160a01b03166370a08231856020015186600001518151811061369357613693614ae5565b60018314156113115783602001518181518110613ba757613ba7614ae5565b60200260200101516001600160a01b0316636352211e8560200151866000015181518110613bd757613bd7614ae5565b60200260200101516040518263ffffffff1660e01b8152600401613bfd91815260200190565b602060405180830381865afa158015613c1a573d6000803e3d6000fd5b505050506040513d601f19601f82011682018060405250810190613c3e91906154fd565b6001600160a01b031684602001518281518110612fdc57612fdc614ae5565b60028210613c7d5760405162461bcd60e51b8152600401610aa5906152d3565b81613d1d57825160011981018452602084015180516002199092019182908110613ca957613ca9614ae5565b60200260200101516001600160a01b031662fdd58e85602001518360010181518110613cd757613cd7614ae5565b602002602001015186602001518460020181518110613cf857613cf8614ae5565b60200260200101516040518363ffffffff1660e01b8152600401613a6192919061454e565b6001821415610a3457600181016000816001600160401b03811115613d4457613d446145b4565b604051908082528060200260200182016040528015613d6d578160200160208202803683370190505b5090506000826001600160401b03811115613d8a57613d8a6145b4565b604051908082528060200260200182016040528015613db3578160200160208202803683370190505b5086518490036000198181018952602089015180519394509186900301916000919083908110613de557613de5614ae5565b6020026020010151905060005b85811015613e8f57886020015181840160010181518110613e1557613e15614ae5565b6020026020010151858281518110613e2f57613e2f614ae5565b6001600160a01b0390921660209283029190910182015289015180516001858901840101908110613e6257613e62614ae5565b6020026020010151848281518110613e7c57613e7c614ae5565b6020908102919091010152600101613df2565b506040516313849cfd60e21b81526000906001600160a01b03831690634e1273f490613ec1908890889060040161551a565b600060405180830381865afa158015613ede573d6000803e3d6000fd5b505050506040513d6000823e601f3d908101601f19168201604052613f069190810190615570565b905060005b86811015613f5857818181518110613f2557613f25614ae5565b60200260200101518a6020015182860181518110613f4557613f45614ae5565b6020908102919091010152600101613f0b565b50505050505050505050565b6000808260121415613f795783915050610553565b8260121115613fa557506012829003613f9381600a6154d8565b613f9d9085614b30565b915050610553565b506011198201613fb681600a6154d8565b613f9d9085614b65565b5092915050565b6000806012831415613fdc5783915050610553565b8260121115613ff657506012829003613fb681600a6154d8565b506011198201613f9381600a6154d8565b600081810b614017575081610553565b60008260000b131561403f5761402e82600a6155a4565b6140389084614b30565b9050610553565b60ff600083900316613fb681600a6154d8565b600082820183811061406457806121a6565b600019949350505050565b600081831161407f57600061173f565b50900390565b60008261409457506000610553565b828202828482816140a7576140a7614b4f565b04141561406457806121a6565b60008060015b6008811161410b5760006140ce8683614265565b905060006140dc8684614265565b905060006140ea838361406f565b90506140fa8560018603836142aa565b945050600190920191506140ba9050565b509392505050565b60008260088111156141375760405162461bcd60e51b8152600401610aa5906155b3565b6000855b858110156141635763ffffffff6020820290811b199890981685891b1797915060010161413b565b50959695505050505050565b835160009081908190819060015b6008811161425757600092508287614198575060001961419c565b5060005b60005b83811015614233576141ca8c82815181106141bc576141bc614ae5565b602002602001015184614265565b95508a861161421c57886141e9576141e2868361284c565b9150614213565b60018914156141fc576141e286836142ea565b60028914801561420a575084155b15614213578591505b6001945061422b565b8961422b576000199150614233565b60010161419f565b508361423e57506000195b61424c8660018403836142aa565b95505060010161417d565b509298975050505050505050565b60008160088111156142895760405162461bcd60e51b8152600401610aa5906155b3565b826142975760009150613fc0565b5050600019016020021c63ffffffff1690565b60008260088111156142ce5760405162461bcd60e51b8152600401610aa5906155b3565b505060209190910290811b63ffffffff90911b19919091161790565b60008183101561285b578161173f565b82805461430690614afb565b90600052602060002090601f016020900481019282614328576000855561436e565b82601f1061434157805160ff191683800117855561436e565b8280016001018555821561436e579182015b8281111561436e578251825591602001919060010190614353565b5061437a9291506143ad565b5090565b6040518060a0016040528060008152602001606081526020016060815260200160608152602001606081525090565b5b8082111561437a57600081556001016143ae565b6001600160e01b031981168114610d2a57600080fd5b6000602082840312156143ea57600080fd5b813561173f816143c2565b6001600160a01b0381168114610d2a57600080fd5b8035614415816143f5565b919050565b6000806040838503121561442d57600080fd5b8235614438816143f5565b946020939093013593505050565b60005b83811015614461578181015183820152602001614449565b838111156113115750506000910152565b6000815180845261448a816020860160208601614446565b601f01601f19169290920160200192915050565b60208152600061173f6020830184614472565b6000602082840312156144c357600080fd5b5035919050565b6001600160a01b03169052565b6001600160a01b0391909116815260200190565b60008060006060848603121561450057600080fd5b833561450b816143f5565b9250602084013561451b816143f5565b929592945050506040919091013590565b6000806040838503121561453f57600080fd5b50508035926020909101359150565b6001600160a01b03929092168252602082015260400190565b6000806040838503121561457a57600080fd5b82359150602083013561458c816143f5565b809150509250929050565b6000602082840312156145a957600080fd5b813561173f816143f5565b634e487b7160e01b600052604160045260246000fd5b604051608081016001600160401b03811182821017156145ec576145ec6145b4565b60405290565b60405161014081016001600160401b03811182821017156145ec576145ec6145b4565b60405160a081016001600160401b03811182821017156145ec576145ec6145b4565b604051601f8201601f191681016001600160401b038111828210171561465f5761465f6145b4565b604052919050565b60006001600160401b03821115614680576146806145b4565b50601f01601f191660200190565b600082601f83011261469f57600080fd5b81356146b26146ad82614667565b614637565b8181528460208386010111156146c757600080fd5b816020850160208301376000918101602001919091529392505050565b60006001600160401b038211156146fd576146fd6145b4565b5060051b60200190565b600082601f83011261471857600080fd5b813560206147286146ad836146e4565b82815260059290921b8401810191818101908684111561474757600080fd5b8286015b84811015614762578035835291830191830161474b565b509695505050505050565b60006080828403121561477f57600080fd5b6147876145ca565b905081356001600160401b03808211156147a057600080fd5b818401915084601f8301126147b457600080fd5b813560206147c46146ad836146e4565b82815260059290921b840181019181810190888411156147e357600080fd5b8286015b8481101561481b578035868111156147ff5760008081fd5b61480d8b86838b010161468e565b8452509183019183016147e7565b508652508581013593508284111561483257600080fd5b61483e87858801614707565b8186015250505050604082013560408201526060820135606082015292915050565b60006020828403121561487257600080fd5b81356001600160401b038082111561488957600080fd5b90830190610140828603121561489e57600080fd5b6148a66145f2565b8235828111156148b557600080fd5b6148c18782860161468e565b8252506020830135828111156148d657600080fd5b6148e28782860161468e565b6020830152506040830135828111156148fa57600080fd5b6149068782860161468e565b604083015250606083013560608201526149226080840161440a565b608082015261493360a0840161440a565b60a082015261494460c0840161440a565b60c082015260e083013560e082015261010061496181850161440a565b90820152610120838101358381111561497957600080fd5b6149858882870161476d565b918301919091525095945050505050565b600080600080608085870312156149ac57600080fd5b84356149b7816143f5565b966020860135965060408601359560600135945092505050565b8015158114610d2a57600080fd5b600080604083850312156149f257600080fd5b82356149fd816143f5565b9150602083013561458c816149d1565b60006060828403121561283357600080fd5b60008060008060808587031215614a3557600080fd5b8435614a40816143f5565b93506020850135614a50816143f5565b92506040850135915060608501356001600160401b03811115614a7257600080fd5b614a7e8782880161468e565b91505092959194509250565b60008060408385031215614a9d57600080fd5b8235614aa8816143f5565b9150602083013561458c816143f5565b634e487b7160e01b600052601160045260246000fd5b600082821015614ae057614ae0614ab8565b500390565b634e487b7160e01b600052603260045260246000fd5b600181811c90821680614b0f57607f821691505b6020821081141561283357634e487b7160e01b600052602260045260246000fd5b6000816000190483118215151615614b4a57614b4a614ab8565b500290565b634e487b7160e01b600052601260045260246000fd5b600082614b7457614b74614b4f565b500490565b6001600160a01b039390931683526020830191909152604082015260600190565b600060208284031215614bac57600080fd5b815161173f816149d1565b600081518084526020808501808196508360051b8101915082860160005b85811015614bff578284038952614bed848351614472565b98850198935090840190600101614bd5565b5091979650505050505050565b600081518084526020808501945080840160005b83811015614c3c57815187529582019590820190600101614c20565b509495945050505050565b6000815160808452614c5c6080850182614bb7565b905060208301518482036020860152614c758282614c0c565b91505060408301516040850152606083015160608501528091505092915050565b6020815260008251610140806020850152614cb5610160850183614472565b91506020850151601f1980868503016040870152614cd38483614472565b93506040870151915080868503016060870152614cf08483614472565b93506060870151608087015260808701519150614d1060a08701836144ca565b60a08701519150614d2460c08701836144ca565b60c08701519150614d3860e08701836144ca565b60e0870151610100878101919091528701519150610120614d5b818801846144ca565b870151868503909101838701529050614d748382614c47565b9695505050505050565b600060608284031215614d9057600080fd5b604051606081016001600160401b0381118282101715614db257614db26145b4565b80604052508235815260208301356020820152604083013560408201528091505092915050565b60008151614deb818560208601614446565b9290920192915050565b600080845481600182811c915080831680614e1157607f831692505b6020808410821415614e3157634e487b7160e01b86526022600452602486fd5b818015614e455760018114614e5657614e83565b60ff19861689528489019650614e83565b60008b81526020902060005b86811015614e7b5781548b820152908501908301614e62565b505084890196505b505050505050614eb7614ea6614ea083602f60f81b815260010190565b86614dd9565b64173539b7b760d91b815260050190565b95945050505050565b600082601f830112614ed157600080fd5b81516020614ee16146ad836146e4565b82815260059290921b84018101918181019086841115614f0057600080fd5b8286015b848110156147625780518352918301918301614f04565b600082601f830112614f2c57600080fd5b81516020614f3c6146ad836146e4565b82815260059290921b84018101918181019086841115614f5b57600080fd5b8286015b848110156147625780516001600160401b03811115614f7e5760008081fd5b8701603f81018913614f905760008081fd5b848101516040614fa26146ad83614667565b8281528b82848601011115614fb75760008081fd5b614fc683898301848701614446565b8652505050918301918301614f5f565b600060208284031215614fe857600080fd5b81516001600160401b0380821115614fff57600080fd5b9083019060a0828603121561501357600080fd5b61501b614615565b8251815260208301518281111561503157600080fd5b61503d87828601614ec0565b60208301525060408301518281111561505557600080fd5b61506187828601614f1b565b60408301525060608301518281111561507957600080fd5b61508587828601614ec0565b60608301525060808301518281111561509d57600080fd5b6150a987828601614ec0565b60808301525095945050505050565b6020808252600e908201526d535441434b5f4f564552464c4f5760901b604082015260600190565b805182526000602082015160a060208501526150ff60a0850182614c0c565b9050604083015184820360408601526151188282614bb7565b915050606083015184820360608601526151328282614c0c565b91505060808301518482036080860152614eb78282614c0c565b60208152600061173f60208301846150e0565b60208082526034908201526000805160206155d6833981519152604082015273206973206e6f7420696e697469616c697a696e6760601b606082015260800190565b6020808252602b908201527f496e697469616c697a61626c653a20636f6e7472616374206973206e6f74206960408201526a6e697469616c697a696e6760a81b606082015260800190565b6001600160a01b03848116825283166020820152606060408201819052600090614eb7908301846150e0565b6001600160a01b0385811682528416602082015260408101839052608060608201819052600090614d7490830184614472565b60006020828403121561525d57600080fd5b815161173f816143c2565b600060001982141561527c5761527c614ab8565b5060010190565b60008261529257615292614b4f565b500690565b600082198211156152aa576152aa614ab8565b500190565b600080604083850312156152c257600080fd5b505080516020909101519092909150565b6020808252600a90820152694d41585f4f50434f444560b01b604082015260600190565b76020b1b1b2b9b9a1b7b73a3937b61d1030b1b1b7bab73a1604d1b815260008351615329816017850160208801614446565b7001034b99036b4b9b9b4b733903937b6329607d1b601791840191820152835161535a816028840160208801614446565b01602801949350505050565b600081526000825161537f816001850160208701614446565b9190910160010192915050565b60008161539b5761539b614ab8565b506000190190565b606360f81b815260e083901b6001600160e01b03191660018201526880600e6000396000f360b81b600582015281516000906153e681600e850160208701614446565b91909101600e019392505050565b600181815b8085111561542f57816000190482111561541557615415614ab8565b8085161561542257918102915b93841c93908002906153f9565b509250929050565b60008261544657506001610553565b8161545357506000610553565b816001811461546957600281146154735761548f565b6001915050610553565b60ff84111561548457615484614ab8565b50506001821b610553565b5060208310610133831016604e8410600b84101617156154b2575081810a610553565b6154bc83836153f4565b80600019048211156154d0576154d0614ab8565b029392505050565b600061173f8383615437565b6000602082840312156154f657600080fd5b5051919050565b60006020828403121561550f57600080fd5b815161173f816143f5565b604080825283519082018190526000906020906060840190828701845b8281101561555c5781516001600160a01b031684529284019290840190600101615537565b50505083810382850152614d748186614c0c565b60006020828403121561558257600080fd5b81516001600160401b0381111561559857600080fd5b6121a684828501614ec0565b600061173f60ff841683615437565b60208082526008908201526726a0ac2faa24a2a960c11b60408201526060019056fe455243373231415f5f496e697469616c697a61626c653a20636f6e74726163745ed6f179f99b86220df7cbd206c7334b24cb795a85808301007ee7b2ff91a820ddf252ad1be2c89b69c2b068fc378daa952ba7f163c4a11628f55a4df523b3ef637062c33901e7d06867eef333d6cabd2aa851e91f8ce674ab4dba45bdc99c70a2646970667358221220d1effdf13fd69496ef21d048011d70e121941253ecc4222fca78baa5b117a7bd64736f6c634300080a0033",
  "linkReferences": {},
  "deployedLinkReferences": {}
}